{
  "contractName": "VoteFactory",
  "abi": [
    {
      "anonymous": false,
      "inputs": [
        {
          "indexed": false,
          "internalType": "uint256",
          "name": "id",
          "type": "uint256"
        },
        {
          "indexed": false,
          "internalType": "bool",
          "name": "result",
          "type": "bool"
        }
      ],
      "name": "NewVote",
      "type": "event"
    },
    {
      "anonymous": false,
      "inputs": [
        {
          "indexed": true,
          "internalType": "address",
          "name": "previousOwner",
          "type": "address"
        },
        {
          "indexed": true,
          "internalType": "address",
          "name": "newOwner",
          "type": "address"
        }
      ],
      "name": "OwnershipTransferred",
      "type": "event"
    },
    {
      "inputs": [],
      "name": "owner",
      "outputs": [
        {
          "internalType": "address",
          "name": "",
          "type": "address"
        }
      ],
      "stateMutability": "view",
      "type": "function",
      "constant": true
    },
    {
      "inputs": [],
      "name": "referendum",
      "outputs": [
        {
          "internalType": "string",
          "name": "question",
          "type": "string"
        }
      ],
      "stateMutability": "view",
      "type": "function",
      "constant": true
    },
    {
      "inputs": [],
      "name": "renounceOwnership",
      "outputs": [],
      "stateMutability": "nonpayable",
      "type": "function"
    },
    {
      "inputs": [
        {
          "internalType": "address",
          "name": "newOwner",
          "type": "address"
        }
      ],
      "name": "transferOwnership",
      "outputs": [],
      "stateMutability": "nonpayable",
      "type": "function"
    },
    {
      "inputs": [
        {
          "internalType": "uint256",
          "name": "",
          "type": "uint256"
        }
      ],
      "name": "voteToOwner",
      "outputs": [
        {
          "internalType": "address",
          "name": "",
          "type": "address"
        }
      ],
      "stateMutability": "view",
      "type": "function",
      "constant": true
    },
    {
      "inputs": [
        {
          "internalType": "uint256",
          "name": "",
          "type": "uint256"
        }
      ],
      "name": "votes",
      "outputs": [
        {
          "internalType": "bool",
          "name": "result",
          "type": "bool"
        }
      ],
      "stateMutability": "view",
      "type": "function",
      "constant": true
    },
    {
      "inputs": [],
      "name": "getReferendumResults",
      "outputs": [
        {
          "components": [
            {
              "internalType": "string",
              "name": "question",
              "type": "string"
            }
          ],
          "internalType": "struct Referendum",
          "name": "",
          "type": "tuple"
        },
        {
          "components": [
            {
              "internalType": "bool",
              "name": "result",
              "type": "bool"
            }
          ],
          "internalType": "struct Vote[]",
          "name": "",
          "type": "tuple[]"
        }
      ],
      "stateMutability": "view",
      "type": "function",
      "constant": true
    },
    {
      "inputs": [
        {
          "internalType": "bool",
          "name": "_result",
          "type": "bool"
        }
      ],
      "name": "createVote",
      "outputs": [],
      "stateMutability": "nonpayable",
      "type": "function"
    }
  ],
  "bytecode": "0x608060405260405180602001604052806040518060400160405280600a81526020017f7175657374696f6e203f0000000000000000000000000000000000000000000081525081525060026000820151816000019080519060200190620000689291906200016b565b5050503480156200007857600080fd5b50620000996200008d6200009f60201b60201c565b620000a760201b60201c565b62000280565b600033905090565b60008060009054906101000a900473ffffffffffffffffffffffffffffffffffffffff169050816000806101000a81548173ffffffffffffffffffffffffffffffffffffffff021916908373ffffffffffffffffffffffffffffffffffffffff1602179055508173ffffffffffffffffffffffffffffffffffffffff168173ffffffffffffffffffffffffffffffffffffffff167f8be0079c531659141344cd1fd0a4f28419497f9722a3daafe3b4186f6b6457e060405160405180910390a35050565b82805462000179906200024a565b90600052602060002090601f0160209004810192826200019d5760008555620001e9565b82601f10620001b857805160ff1916838001178555620001e9565b82800160010185558215620001e9579182015b82811115620001e8578251825591602001919060010190620001cb565b5b509050620001f89190620001fc565b5090565b5b8082111562000217576000816000905550600101620001fd565b5090565b7f4e487b7100000000000000000000000000000000000000000000000000000000600052602260045260246000fd5b600060028204905060018216806200026357607f821691505b602082108114156200027a57620002796200021b565b5b50919050565b610ea280620002906000396000f3fe608060405234801561001057600080fd5b50600436106100885760003560e01c8063bdceaaee1161005b578063bdceaaee14610104578063e6ee3e6414610120578063e9b59f1514610150578063f2fde38b1461016e57610088565b8063452d32bb1461008d5780635df81330146100ac578063715018a6146100dc5780638da5cb5b146100e6575b600080fd5b61009561018a565b6040516100a39291906109c3565b60405180910390f35b6100c660048036038101906100c19190610a35565b6102b0565b6040516100d39190610a71565b60405180910390f35b6100e46102e7565b005b6100ee61036f565b6040516100fb9190610acd565b60405180910390f35b61011e60048036038101906101199190610b14565b610398565b005b61013a60048036038101906101359190610a35565b61057c565b6040516101479190610acd565b60405180910390f35b6101586105af565b6040516101659190610b8b565b60405180910390f35b61018860048036038101906101839190610bd9565b610643565b005b610192610807565b606060026001816040518060200160405290816000820180546101b490610c35565b80601f01602080910402602001604051908101604052809291908181526020018280546101e090610c35565b801561022d5780601f106102025761010080835404028352916020019161022d565b820191906000526020600020905b81548152906001019060200180831161021057829003601f168201915b505050505081525050915080805480602002602001604051908101604052809291908181526020016000905b828210156102a2578382906000526020600020016040518060200160405290816000820160009054906101000a900460ff16151515158152505081526020019060010190610259565b505050509050915091509091565b600181815481106102c057600080fd5b906000526020600020016000915090508060000160009054906101000a900460ff16905081565b6102ef61073b565b73ffffffffffffffffffffffffffffffffffffffff1661030d61036f565b73ffffffffffffffffffffffffffffffffffffffff1614610363576040517f08c379a000000000000000000000000000000000000000000000000000000000815260040161035a90610cb3565b60405180910390fd5b61036d6000610743565b565b60008060009054906101000a900473ffffffffffffffffffffffffffffffffffffffff16905090565b60016040518060200160405280600115158152509080600181540180825580915050600190039060005260206000200160009091909190915060008201518160000160006101000a81548160ff02191690831515021790555050506000600180805490506104069190610d02565b9050336003600083815260200190815260200160002060006101000a81548173ffffffffffffffffffffffffffffffffffffffff021916908373ffffffffffffffffffffffffffffffffffffffff160217905550600460003373ffffffffffffffffffffffffffffffffffffffff1673ffffffffffffffffffffffffffffffffffffffff16815260200190815260200160002060009054906101000a900460ff16156104e7576040517f08c379a00000000000000000000000000000000000000000000000000000000081526004016104de90610d82565b60405180910390fd5b6001600460003373ffffffffffffffffffffffffffffffffffffffff1673ffffffffffffffffffffffffffffffffffffffff16815260200190815260200160002060006101000a81548160ff0219169083151502179055507fac76e25cc3f0f7cfced8053c872797c461b06d5121ad6185c267a248a567b3ca8183604051610570929190610db1565b60405180910390a15050565b60036020528060005260406000206000915054906101000a900473ffffffffffffffffffffffffffffffffffffffff1681565b60028060000180546105c090610c35565b80601f01602080910402602001604051908101604052809291908181526020018280546105ec90610c35565b80156106395780601f1061060e57610100808354040283529160200191610639565b820191906000526020600020905b81548152906001019060200180831161061c57829003601f168201915b5050505050905081565b61064b61073b565b73ffffffffffffffffffffffffffffffffffffffff1661066961036f565b73ffffffffffffffffffffffffffffffffffffffff16146106bf576040517f08c379a00000000000000000000000000000000000000000000000000000000081526004016106b690610cb3565b60405180910390fd5b600073ffffffffffffffffffffffffffffffffffffffff168173ffffffffffffffffffffffffffffffffffffffff16141561072f576040517f08c379a000000000000000000000000000000000000000000000000000000000815260040161072690610e4c565b60405180910390fd5b61073881610743565b50565b600033905090565b60008060009054906101000a900473ffffffffffffffffffffffffffffffffffffffff169050816000806101000a81548173ffffffffffffffffffffffffffffffffffffffff021916908373ffffffffffffffffffffffffffffffffffffffff1602179055508173ffffffffffffffffffffffffffffffffffffffff168173ffffffffffffffffffffffffffffffffffffffff167f8be0079c531659141344cd1fd0a4f28419497f9722a3daafe3b4186f6b6457e060405160405180910390a35050565b6040518060200160405280606081525090565b600081519050919050565b600082825260208201905092915050565b60005b83811015610854578082015181840152602081019050610839565b83811115610863576000848401525b50505050565b6000601f19601f8301169050919050565b60006108858261081a565b61088f8185610825565b935061089f818560208601610836565b6108a881610869565b840191505092915050565b600060208301600083015184820360008601526108d0828261087a565b9150508091505092915050565b600081519050919050565b600082825260208201905092915050565b6000819050602082019050919050565b60008115159050919050565b61091e81610909565b82525050565b60208201600082015161093a6000850182610915565b50505050565b600061094c8383610924565b60208301905092915050565b6000602082019050919050565b6000610970826108dd565b61097a81856108e8565b9350610985836108f9565b8060005b838110156109b657815161099d8882610940565b97506109a883610958565b925050600181019050610989565b5085935050505092915050565b600060408201905081810360008301526109dd81856108b3565b905081810360208301526109f18184610965565b90509392505050565b600080fd5b6000819050919050565b610a12816109ff565b8114610a1d57600080fd5b50565b600081359050610a2f81610a09565b92915050565b600060208284031215610a4b57610a4a6109fa565b5b6000610a5984828501610a20565b91505092915050565b610a6b81610909565b82525050565b6000602082019050610a866000830184610a62565b92915050565b600073ffffffffffffffffffffffffffffffffffffffff82169050919050565b6000610ab782610a8c565b9050919050565b610ac781610aac565b82525050565b6000602082019050610ae26000830184610abe565b92915050565b610af181610909565b8114610afc57600080fd5b50565b600081359050610b0e81610ae8565b92915050565b600060208284031215610b2a57610b296109fa565b5b6000610b3884828501610aff565b91505092915050565b600082825260208201905092915050565b6000610b5d8261081a565b610b678185610b41565b9350610b77818560208601610836565b610b8081610869565b840191505092915050565b60006020820190508181036000830152610ba58184610b52565b905092915050565b610bb681610aac565b8114610bc157600080fd5b50565b600081359050610bd381610bad565b92915050565b600060208284031215610bef57610bee6109fa565b5b6000610bfd84828501610bc4565b91505092915050565b7f4e487b7100000000000000000000000000000000000000000000000000000000600052602260045260246000fd5b60006002820490506001821680610c4d57607f821691505b60208210811415610c6157610c60610c06565b5b50919050565b7f4f776e61626c653a2063616c6c6572206973206e6f7420746865206f776e6572600082015250565b6000610c9d602083610b41565b9150610ca882610c67565b602082019050919050565b60006020820190508181036000830152610ccc81610c90565b9050919050565b7f4e487b7100000000000000000000000000000000000000000000000000000000600052601160045260246000fd5b6000610d0d826109ff565b9150610d18836109ff565b925082821015610d2b57610d2a610cd3565b5b828203905092915050565b7f43616e6e6f7420766f7465206d6f7265207468616e206f6e6365000000000000600082015250565b6000610d6c601a83610b41565b9150610d7782610d36565b602082019050919050565b60006020820190508181036000830152610d9b81610d5f565b9050919050565b610dab816109ff565b82525050565b6000604082019050610dc66000830185610da2565b610dd36020830184610a62565b9392505050565b7f4f776e61626c653a206e6577206f776e657220697320746865207a65726f206160008201527f6464726573730000000000000000000000000000000000000000000000000000602082015250565b6000610e36602683610b41565b9150610e4182610dda565b604082019050919050565b60006020820190508181036000830152610e6581610e29565b905091905056fea2646970667358221220aa2766906a79c537d9c0acb32612bafac3e3744b9cf4fa4182443bd13dab651b64736f6c634300080a0033",
  "immutableReferences": {},
  "source": "// SPDX-License-Identifier: MIT\npragma solidity >=0.4.22 <0.9.0;\n\nimport '@openzeppelin/contracts/utils/math/SafeMath.sol';\nimport '@openzeppelin/contracts/access/Ownable.sol';\n\nimport \"../structs/Vote.sol\";\nimport \"../structs/Referendum.sol\";\n\ncontract VoteFactory is Ownable {\n\n  using SafeMath for uint256;\n\n  event NewVote(uint id, bool result);\n\n  Vote[] public votes;\n  Referendum public referendum = Referendum(\"question ?\");\n\n  mapping (uint => address) public voteToOwner;\n  mapping (address => bool) ownerHasVoted;\n\n  function getReferendumResults() public view returns (Referendum memory, Vote[] memory) {\n    return (referendum, votes);\n  }\n\n  function createVote(bool _result) public {\n    votes.push(Vote(true));\n    uint id = votes.length - 1;\n    voteToOwner[id] = msg.sender;\n\n    require(!ownerHasVoted[msg.sender], \"Cannot vote more than once\");\n\n    ownerHasVoted[msg.sender] = true;\n    emit NewVote(id, _result);\n  }\n\n}\n",
  "sourcePath": "/home/qcaritey/repos/esgi/blockchain/contract/contracts/factories/VoteFactory.sol",
  "compiler": {
    "name": "solc",
    "version": "0.8.10+commit.fc410830.Emscripten.clang"
  },
  "schemaVersion": "3.4.3",
  "updatedAt": "2022-02-15T23:10:53.119Z",
  "networkType": "ethereum",
  "devdoc": {
    "kind": "dev",
    "methods": {
      "owner()": {
        "details": "Returns the address of the current owner."
      },
      "renounceOwnership()": {
        "details": "Leaves the contract without owner. It will not be possible to call `onlyOwner` functions anymore. Can only be called by the current owner. NOTE: Renouncing ownership will leave the contract without an owner, thereby removing any functionality that is only available to the owner."
      },
      "transferOwnership(address)": {
        "details": "Transfers ownership of the contract to a new account (`newOwner`). Can only be called by the current owner."
      }
    },
    "version": 1
  },
  "userdoc": {
    "kind": "user",
    "methods": {},
    "version": 1
  }
}